{
  "contractName": "SolnSquareVerifier",
  "abi": [
    {
      "inputs": [
        {
          "internalType": "address",
          "name": "verifierAddress",
          "type": "address"
        }
      ],
      "payable": false,
      "stateMutability": "nonpayable",
      "type": "constructor"
    },
    {
      "anonymous": false,
      "inputs": [
        {
          "indexed": true,
          "internalType": "address",
          "name": "owner",
          "type": "address"
        },
        {
          "indexed": true,
          "internalType": "address",
          "name": "approved",
          "type": "address"
        },
        {
          "indexed": true,
          "internalType": "uint256",
          "name": "tokenId",
          "type": "uint256"
        }
      ],
      "name": "Approval",
      "type": "event"
    },
    {
      "anonymous": false,
      "inputs": [
        {
          "indexed": true,
          "internalType": "address",
          "name": "owner",
          "type": "address"
        },
        {
          "indexed": true,
          "internalType": "address",
          "name": "operator",
          "type": "address"
        },
        {
          "indexed": false,
          "internalType": "bool",
          "name": "approved",
          "type": "bool"
        }
      ],
      "name": "ApprovalForAll",
      "type": "event"
    },
    {
      "anonymous": false,
      "inputs": [
        {
          "indexed": false,
          "internalType": "address",
          "name": "newOwnder",
          "type": "address"
        }
      ],
      "name": "OwnerShipTransferred",
      "type": "event"
    },
    {
      "anonymous": false,
      "inputs": [
        {
          "indexed": false,
          "internalType": "address",
          "name": "addr",
          "type": "address"
        }
      ],
      "name": "Paused",
      "type": "event"
    },
    {
      "anonymous": false,
      "inputs": [
        {
          "indexed": false,
          "internalType": "uint256",
          "name": "index",
          "type": "uint256"
        },
        {
          "indexed": false,
          "internalType": "address",
          "name": "owner",
          "type": "address"
        },
        {
          "indexed": false,
          "internalType": "bytes32",
          "name": "key",
          "type": "bytes32"
        }
      ],
      "name": "SolutionAdded",
      "type": "event"
    },
    {
      "anonymous": false,
      "inputs": [
        {
          "indexed": true,
          "internalType": "address",
          "name": "from",
          "type": "address"
        },
        {
          "indexed": true,
          "internalType": "address",
          "name": "to",
          "type": "address"
        },
        {
          "indexed": true,
          "internalType": "uint256",
          "name": "tokenId",
          "type": "uint256"
        }
      ],
      "name": "Transfer",
      "type": "event"
    },
    {
      "anonymous": false,
      "inputs": [
        {
          "indexed": false,
          "internalType": "address",
          "name": "addr",
          "type": "address"
        }
      ],
      "name": "Unpaused",
      "type": "event"
    },
    {
      "constant": false,
      "inputs": [
        {
          "internalType": "bytes32",
          "name": "_myid",
          "type": "bytes32"
        },
        {
          "internalType": "string",
          "name": "_result",
          "type": "string"
        }
      ],
      "name": "__callback",
      "outputs": [],
      "payable": false,
      "stateMutability": "nonpayable",
      "type": "function"
    },
    {
      "constant": false,
      "inputs": [
        {
          "internalType": "bytes32",
          "name": "_myid",
          "type": "bytes32"
        },
        {
          "internalType": "string",
          "name": "_result",
          "type": "string"
        },
        {
          "internalType": "bytes",
          "name": "_proof",
          "type": "bytes"
        }
      ],
      "name": "__callback",
      "outputs": [],
      "payable": false,
      "stateMutability": "nonpayable",
      "type": "function"
    },
    {
      "constant": false,
      "inputs": [
        {
          "internalType": "address",
          "name": "to",
          "type": "address"
        },
        {
          "internalType": "uint256",
          "name": "tokenId",
          "type": "uint256"
        }
      ],
      "name": "approve",
      "outputs": [],
      "payable": false,
      "stateMutability": "nonpayable",
      "type": "function"
    },
    {
      "constant": true,
      "inputs": [
        {
          "internalType": "address",
          "name": "owner",
          "type": "address"
        }
      ],
      "name": "balanceOf",
      "outputs": [
        {
          "internalType": "uint256",
          "name": "",
          "type": "uint256"
        }
      ],
      "payable": false,
      "stateMutability": "view",
      "type": "function"
    },
    {
      "constant": true,
      "inputs": [],
      "name": "baseTokenURI",
      "outputs": [
        {
          "internalType": "string",
          "name": "",
          "type": "string"
        }
      ],
      "payable": false,
      "stateMutability": "view",
      "type": "function"
    },
    {
      "constant": true,
      "inputs": [
        {
          "internalType": "uint256",
          "name": "tokenId",
          "type": "uint256"
        }
      ],
      "name": "getApproved",
      "outputs": [
        {
          "internalType": "address",
          "name": "",
          "type": "address"
        }
      ],
      "payable": false,
      "stateMutability": "view",
      "type": "function"
    },
    {
      "constant": true,
      "inputs": [],
      "name": "getOwner",
      "outputs": [
        {
          "internalType": "address",
          "name": "",
          "type": "address"
        }
      ],
      "payable": false,
      "stateMutability": "view",
      "type": "function"
    },
    {
      "constant": true,
      "inputs": [
        {
          "internalType": "address",
          "name": "owner",
          "type": "address"
        },
        {
          "internalType": "address",
          "name": "operator",
          "type": "address"
        }
      ],
      "name": "isApprovedForAll",
      "outputs": [
        {
          "internalType": "bool",
          "name": "",
          "type": "bool"
        }
      ],
      "payable": false,
      "stateMutability": "view",
      "type": "function"
    },
    {
      "constant": false,
      "inputs": [
        {
          "internalType": "address",
          "name": "to",
          "type": "address"
        },
        {
          "internalType": "uint256",
          "name": "tokenId",
          "type": "uint256"
        }
      ],
      "name": "mint",
      "outputs": [
        {
          "internalType": "bool",
          "name": "",
          "type": "bool"
        }
      ],
      "payable": false,
      "stateMutability": "nonpayable",
      "type": "function"
    },
    {
      "constant": true,
      "inputs": [],
      "name": "name",
      "outputs": [
        {
          "internalType": "string",
          "name": "",
          "type": "string"
        }
      ],
      "payable": false,
      "stateMutability": "view",
      "type": "function"
    },
    {
      "constant": true,
      "inputs": [
        {
          "internalType": "uint256",
          "name": "tokenId",
          "type": "uint256"
        }
      ],
      "name": "ownerOf",
      "outputs": [
        {
          "internalType": "address",
          "name": "",
          "type": "address"
        }
      ],
      "payable": false,
      "stateMutability": "view",
      "type": "function"
    },
    {
      "constant": false,
      "inputs": [
        {
          "internalType": "address",
          "name": "from",
          "type": "address"
        },
        {
          "internalType": "address",
          "name": "to",
          "type": "address"
        },
        {
          "internalType": "uint256",
          "name": "tokenId",
          "type": "uint256"
        }
      ],
      "name": "safeTransferFrom",
      "outputs": [],
      "payable": false,
      "stateMutability": "nonpayable",
      "type": "function"
    },
    {
      "constant": false,
      "inputs": [
        {
          "internalType": "address",
          "name": "from",
          "type": "address"
        },
        {
          "internalType": "address",
          "name": "to",
          "type": "address"
        },
        {
          "internalType": "uint256",
          "name": "tokenId",
          "type": "uint256"
        },
        {
          "internalType": "bytes",
          "name": "_data",
          "type": "bytes"
        }
      ],
      "name": "safeTransferFrom",
      "outputs": [],
      "payable": false,
      "stateMutability": "nonpayable",
      "type": "function"
    },
    {
      "constant": false,
      "inputs": [
        {
          "internalType": "address",
          "name": "to",
          "type": "address"
        },
        {
          "internalType": "bool",
          "name": "approved",
          "type": "bool"
        }
      ],
      "name": "setApprovalForAll",
      "outputs": [],
      "payable": false,
      "stateMutability": "nonpayable",
      "type": "function"
    },
    {
      "constant": false,
      "inputs": [
        {
          "internalType": "bool",
          "name": "status",
          "type": "bool"
        }
      ],
      "name": "setContractStatus",
      "outputs": [],
      "payable": false,
      "stateMutability": "nonpayable",
      "type": "function"
    },
    {
      "constant": true,
      "inputs": [
        {
          "internalType": "bytes4",
          "name": "interfaceId",
          "type": "bytes4"
        }
      ],
      "name": "supportsInterface",
      "outputs": [
        {
          "internalType": "bool",
          "name": "",
          "type": "bool"
        }
      ],
      "payable": false,
      "stateMutability": "view",
      "type": "function"
    },
    {
      "constant": true,
      "inputs": [],
      "name": "symbol",
      "outputs": [
        {
          "internalType": "string",
          "name": "",
          "type": "string"
        }
      ],
      "payable": false,
      "stateMutability": "view",
      "type": "function"
    },
    {
      "constant": true,
      "inputs": [
        {
          "internalType": "uint256",
          "name": "index",
          "type": "uint256"
        }
      ],
      "name": "tokenByIndex",
      "outputs": [
        {
          "internalType": "uint256",
          "name": "",
          "type": "uint256"
        }
      ],
      "payable": false,
      "stateMutability": "view",
      "type": "function"
    },
    {
      "constant": true,
      "inputs": [
        {
          "internalType": "address",
          "name": "owner",
          "type": "address"
        },
        {
          "internalType": "uint256",
          "name": "index",
          "type": "uint256"
        }
      ],
      "name": "tokenOfOwnerByIndex",
      "outputs": [
        {
          "internalType": "uint256",
          "name": "",
          "type": "uint256"
        }
      ],
      "payable": false,
      "stateMutability": "view",
      "type": "function"
    },
    {
      "constant": true,
      "inputs": [
        {
          "internalType": "uint256",
          "name": "tokenId",
          "type": "uint256"
        }
      ],
      "name": "tokenURI",
      "outputs": [
        {
          "internalType": "string",
          "name": "",
          "type": "string"
        }
      ],
      "payable": false,
      "stateMutability": "view",
      "type": "function"
    },
    {
      "constant": true,
      "inputs": [],
      "name": "totalSupply",
      "outputs": [
        {
          "internalType": "uint256",
          "name": "",
          "type": "uint256"
        }
      ],
      "payable": false,
      "stateMutability": "view",
      "type": "function"
    },
    {
      "constant": false,
      "inputs": [
        {
          "internalType": "address",
          "name": "from",
          "type": "address"
        },
        {
          "internalType": "address",
          "name": "to",
          "type": "address"
        },
        {
          "internalType": "uint256",
          "name": "tokenId",
          "type": "uint256"
        }
      ],
      "name": "transferFrom",
      "outputs": [],
      "payable": false,
      "stateMutability": "nonpayable",
      "type": "function"
    },
    {
      "constant": false,
      "inputs": [
        {
          "internalType": "address",
          "name": "newOwner",
          "type": "address"
        }
      ],
      "name": "transferOwnership",
      "outputs": [],
      "payable": false,
      "stateMutability": "nonpayable",
      "type": "function"
    },
    {
      "constant": true,
      "inputs": [],
      "name": "verifierContract",
      "outputs": [
        {
          "internalType": "contract SquareVerifier",
          "name": "",
          "type": "address"
        }
      ],
      "payable": false,
      "stateMutability": "view",
      "type": "function"
    },
    {
      "constant": false,
      "inputs": [
        {
          "internalType": "address",
          "name": "user",
          "type": "address"
        },
        {
          "internalType": "uint256",
          "name": "index",
          "type": "uint256"
        },
        {
          "internalType": "uint256[2]",
          "name": "a",
          "type": "uint256[2]"
        },
        {
          "internalType": "uint256[2][2]",
          "name": "b",
          "type": "uint256[2][2]"
        },
        {
          "internalType": "uint256[2]",
          "name": "c",
          "type": "uint256[2]"
        },
        {
          "internalType": "uint256[2]",
          "name": "input",
          "type": "uint256[2]"
        }
      ],
      "name": "mintCoin",
      "outputs": [],
      "payable": false,
      "stateMutability": "nonpayable",
      "type": "function"
    }
  ],
  "bytecode": "0x60806040523480156200001157600080fd5b50604051620039d6380380620039d6833981810160405260208110156200003757600080fd5b81019080805190602001909291905050506040518060400160405280601281526020017f4665726e20417765736f6d6520546f6b656e00000000000000000000000000008152506040518060400160405280600381526020017f46415400000000000000000000000000000000000000000000000000000000008152506040518060600160405280603f815260200162003997603f9139336000806101000a81548173ffffffffffffffffffffffffffffffffffffffff021916908373ffffffffffffffffffffffffffffffffffffffff1602179055507f143e5287faad4318baa07178f135451e874bf0ab18ac3e5fe90d52756dc8e3d56000809054906101000a900473ffffffffffffffffffffffffffffffffffffffff16604051808273ffffffffffffffffffffffffffffffffffffffff1673ffffffffffffffffffffffffffffffffffffffff16815260200191505060405180910390a160008060146101000a81548160ff021916908315150217905550620001c46301ffc9a760e01b620002a260201b60201c565b620001dc6380ac58cd60e01b620002a260201b60201c565b620001f463780e9d6360e01b620002a260201b60201c565b82600f90805190602001906200020c92919062000342565b5081601090805190602001906200022592919062000342565b5080601190805190602001906200023e92919062000342565b5062000257635b5e139f60e01b620002a260201b60201c565b50505080601560006101000a81548173ffffffffffffffffffffffffffffffffffffffff021916908373ffffffffffffffffffffffffffffffffffffffff16021790555050620003f1565b63ffffffff60e01b817bffffffffffffffffffffffffffffffffffffffffffffffffffffffff19161415620002d657600080fd5b6001806000837bffffffffffffffffffffffffffffffffffffffffffffffffffffffff19167bffffffffffffffffffffffffffffffffffffffffffffffffffffffff1916815260200190815260200160002060006101000a81548160ff02191690831515021790555050565b828054600181600116156101000203166002900490600052602060002090601f016020900481019282601f106200038557805160ff1916838001178555620003b6565b82800160010185558215620003b6579182015b82811115620003b557825182559160200191906001019062000398565b5b509050620003c59190620003c9565b5090565b620003ee91905b80821115620003ea576000816000905550600101620003d0565b5090565b90565b61359680620004016000396000f3fe608060405234801561001057600080fd5b50600436106101735760003560e01c80636352211e116100de578063b758910311610097578063cf69568811610071578063cf69568814610c8b578063d547cfb714610cd5578063e985e9c514610d58578063f2fde38b14610dd457610173565b8063b758910314610954578063b88d4fde14610adf578063c87b56dd14610be457610173565b80636352211e1461074157806370a08231146107af57806388b8084f14610807578063893d20e81461083757806395d89b4114610881578063a22cb4651461090457610173565b806327dc297e1161013057806327dc297e146103a85780632f745c591461046d57806338bbfa50146104cf57806340c10f191461062b57806342842e0e146106915780634f6ccce7146106ff57610173565b806301ffc9a71461017857806306fdde03146101dd578063081812fc14610260578063095ea7b3146102ce57806318160ddd1461031c57806323b872dd1461033a575b600080fd5b6101c36004803603602081101561018e57600080fd5b8101908080357bffffffffffffffffffffffffffffffffffffffffffffffffffffffff19169060200190929190505050610e18565b604051808215151515815260200191505060405180910390f35b6101e5610e80565b6040518080602001828103825283818151815260200191508051906020019080838360005b8381101561022557808201518184015260208101905061020a565b50505050905090810190601f1680156102525780820380516001836020036101000a031916815260200191505b509250505060405180910390f35b61028c6004803603602081101561027657600080fd5b8101908080359060200190929190505050610f22565b604051808273ffffffffffffffffffffffffffffffffffffffff1673ffffffffffffffffffffffffffffffffffffffff16815260200191505060405180910390f35b61031a600480360360408110156102e457600080fd5b81019080803573ffffffffffffffffffffffffffffffffffffffff16906020019092919080359060200190929190505050610f5f565b005b61032461112d565b6040518082815260200191505060405180910390f35b6103a66004803603606081101561035057600080fd5b81019080803573ffffffffffffffffffffffffffffffffffffffff169060200190929190803573ffffffffffffffffffffffffffffffffffffffff1690602001909291908035906020019092919050505061113a565b005b61046b600480360360408110156103be57600080fd5b8101908080359060200190929190803590602001906401000000008111156103e557600080fd5b8201836020820111156103f757600080fd5b8035906020019184600183028401116401000000008311171561041957600080fd5b91908080601f016020809104026020016040519081016040528093929190818152602001838380828437600081840152601f19601f8201169050808301925050505050505091929192905050506111c6565b005b6104b96004803603604081101561048357600080fd5b81019080803573ffffffffffffffffffffffffffffffffffffffff16906020019092919080359060200190929190505050611209565b6040518082815260200191505060405180910390f35b610629600480360360608110156104e557600080fd5b81019080803590602001909291908035906020019064010000000081111561050c57600080fd5b82018360208201111561051e57600080fd5b8035906020019184600183028401116401000000008311171561054057600080fd5b91908080601f016020809104026020016040519081016040528093929190818152602001838380828437600081840152601f19601f820116905080830192505050505050509192919290803590602001906401000000008111156105a357600080fd5b8201836020820111156105b557600080fd5b803590602001918460018302840111640100000000831117156105d757600080fd5b91908080601f016020809104026020016040519081016040528093929190818152602001838380828437600081840152601f19601f82011690508083019250505050505050919291929050505061127c565b005b6106776004803603604081101561064157600080fd5b81019080803573ffffffffffffffffffffffffffffffffffffffff16906020019092919080359060200190929190505050611281565b604051808215151515815260200191505060405180910390f35b6106fd600480360360608110156106a757600080fd5b81019080803573ffffffffffffffffffffffffffffffffffffffff169060200190929190803573ffffffffffffffffffffffffffffffffffffffff16906020019092919080359060200190929190505050611362565b005b61072b6004803603602081101561071557600080fd5b8101908080359060200190929190505050611382565b6040518082815260200191505060405180910390f35b61076d6004803603602081101561075757600080fd5b81019080803590602001909291905050506113b6565b604051808273ffffffffffffffffffffffffffffffffffffffff1673ffffffffffffffffffffffffffffffffffffffff16815260200191505060405180910390f35b6107f1600480360360208110156107c557600080fd5b81019080803573ffffffffffffffffffffffffffffffffffffffff1690602001909291905050506113f3565b6040518082815260200191505060405180910390f35b6108356004803603602081101561081d57600080fd5b81019080803515159060200190929190505050611448565b005b61083f611608565b604051808273ffffffffffffffffffffffffffffffffffffffff1673ffffffffffffffffffffffffffffffffffffffff16815260200191505060405180910390f35b610889611631565b6040518080602001828103825283818151815260200191508051906020019080838360005b838110156108c95780820151818401526020810190506108ae565b50505050905090810190601f1680156108f65780820380516001836020036101000a031916815260200191505b509250505060405180910390f35b6109526004803603604081101561091a57600080fd5b81019080803573ffffffffffffffffffffffffffffffffffffffff1690602001909291908035151590602001909291905050506116d3565b005b610add600480360361018081101561096b57600080fd5b81019080803573ffffffffffffffffffffffffffffffffffffffff1690602001909291908035906020019092919080604001906002806020026040519081016040528092919082600260200280828437600081840152601f19601f82011690508083019250505050505091929192908060800190600280602002604051908101604052809291906000905b82821015610a4a578382604002016002806020026040519081016040528092919082600260200280828437600081840152601f19601f820116905080830192505050505050815260200190600101906109f6565b50505050919291929080604001906002806020026040519081016040528092919082600260200280828437600081840152601f19601f820116905080830192505050505050919291929080604001906002806020026040519081016040528092919082600260200280828437600081840152601f19601f820116905080830192505050505050919291929050505061180d565b005b610be260048036036080811015610af557600080fd5b81019080803573ffffffffffffffffffffffffffffffffffffffff169060200190929190803573ffffffffffffffffffffffffffffffffffffffff1690602001909291908035906020019092919080359060200190640100000000811115610b5c57600080fd5b820183602082011115610b6e57600080fd5b80359060200191846001830284011164010000000083111715610b9057600080fd5b91908080601f016020809104026020016040519081016040528093929190818152602001838380828437600081840152601f19601f820116905080830192505050505050509192919290505050611bd1565b005b610c1060048036036020811015610bfa57600080fd5b8101908080359060200190929190505050611bf7565b6040518080602001828103825283818151815260200191508051906020019080838360005b83811015610c50578082015181840152602081019050610c35565b50505050905090810190601f168015610c7d5780820380516001836020036101000a031916815260200191505b509250505060405180910390f35b610c93611cbe565b604051808273ffffffffffffffffffffffffffffffffffffffff1673ffffffffffffffffffffffffffffffffffffffff16815260200191505060405180910390f35b610cdd611ce4565b6040518080602001828103825283818151815260200191508051906020019080838360005b83811015610d1d578082015181840152602081019050610d02565b50505050905090810190601f168015610d4a5780820380516001836020036101000a031916815260200191505b509250505060405180910390f35b610dba60048036036040811015610d6e57600080fd5b81019080803573ffffffffffffffffffffffffffffffffffffffff169060200190929190803573ffffffffffffffffffffffffffffffffffffffff169060200190929190505050611d86565b604051808215151515815260200191505060405180910390f35b610e1660048036036020811015610dea57600080fd5b81019080803573ffffffffffffffffffffffffffffffffffffffff169060200190929190505050611e1a565b005b600060016000837bffffffffffffffffffffffffffffffffffffffffffffffffffffffff19167bffffffffffffffffffffffffffffffffffffffffffffffffffffffff1916815260200190815260200160002060009054906101000a900460ff169050919050565b6060600f8054600181600116156101000203166002900480601f016020809104026020016040519081016040528092919081815260200182805460018160011615610100020316600290048015610f185780601f10610eed57610100808354040283529160200191610f18565b820191906000526020600020905b815481529060010190602001808311610efb57829003601f168201915b5050505050905090565b60006003600083815260200190815260200160002060009054906101000a900473ffffffffffffffffffffffffffffffffffffffff169050919050565b80828073ffffffffffffffffffffffffffffffffffffffff166002600084815260200190815260200160002060009054906101000a900473ffffffffffffffffffffffffffffffffffffffff1673ffffffffffffffffffffffffffffffffffffffff161415611019576040517f08c379a00000000000000000000000000000000000000000000000000000000081526004018080602001828103825260278152602001806134c76027913960400191505060405180910390fd5b826110243382612046565b611079576040517f08c379a000000000000000000000000000000000000000000000000000000000815260040180806020018281038252602981526020018061350f6029913960400191505060405180910390fd5b846003600086815260200190815260200160002060006101000a81548173ffffffffffffffffffffffffffffffffffffffff021916908373ffffffffffffffffffffffffffffffffffffffff160217905550838573ffffffffffffffffffffffffffffffffffffffff163373ffffffffffffffffffffffffffffffffffffffff167f8c5be1e5ebec7d5bd14f71427d1e84f3dd0314c0f7b2291e5b200ac8c7c3b92560405160405180910390a45050505050565b6000600880549050905090565b6111443382612046565b6111b6576040517f08c379a00000000000000000000000000000000000000000000000000000000081526004018080602001828103825260178152602001807f53656e6465722073686f756c64206f776e20746f6b656e00000000000000000081525060200191505060405180910390fd5b6111c18383836120db565b505050565b611205828260006040519080825280601f01601f1916602001820160405280156111ff5781602001600182028038833980820191505090505b5061127c565b5050565b6000611214836113f3565b821061121f57600080fd5b600660008473ffffffffffffffffffffffffffffffffffffffff1673ffffffffffffffffffffffffffffffffffffffff168152602001908152602001600020828154811061126957fe5b9060005260206000200154905092915050565b505050565b60003373ffffffffffffffffffffffffffffffffffffffff166000809054906101000a900473ffffffffffffffffffffffffffffffffffffffff1673ffffffffffffffffffffffffffffffffffffffff1614611345576040517f08c379a000000000000000000000000000000000000000000000000000000000815260040180806020018281038252600c8152602001807f4e6f7420616e206f776e6572000000000000000000000000000000000000000081525060200191505060405180910390fd5b61134f83836120ff565b61135882612120565b6001905092915050565b61137d83838360405180602001604052806000815250611bd1565b505050565b600061138c61112d565b821061139757600080fd5b600882815481106113a457fe5b90600052602060002001549050919050565b60006002600083815260200190815260200160002060009054906101000a900473ffffffffffffffffffffffffffffffffffffffff169050919050565b600080600460008473ffffffffffffffffffffffffffffffffffffffff1673ffffffffffffffffffffffffffffffffffffffff168152602001908152602001600020905061144081612271565b915050919050565b3373ffffffffffffffffffffffffffffffffffffffff166000809054906101000a900473ffffffffffffffffffffffffffffffffffffffff1673ffffffffffffffffffffffffffffffffffffffff161461150a576040517f08c379a000000000000000000000000000000000000000000000000000000000815260040180806020018281038252600c8152602001807f4e6f7420616e206f776e6572000000000000000000000000000000000000000081525060200191505060405180910390fd5b80600060146101000a81548160ff021916908315150217905550600060149054906101000a900460ff16156115a1577f62e78cea01bee320cd4e420270b5ea74000d11b0c9f74754ebdbfc544b05a25833604051808273ffffffffffffffffffffffffffffffffffffffff1673ffffffffffffffffffffffffffffffffffffffff16815260200191505060405180910390a1611605565b7f5db9ee0a495bf2e6ff9c91a7834c1ba4fdd244a5e8aa4e537bd38aeae4b073aa33604051808273ffffffffffffffffffffffffffffffffffffffff1673ffffffffffffffffffffffffffffffffffffffff16815260200191505060405180910390a15b50565b60008060009054906101000a900473ffffffffffffffffffffffffffffffffffffffff16905090565b606060108054600181600116156101000203166002900480601f0160208091040260200160405190810160405280929190818152602001828054600181600116156101000203166002900480156116c95780601f1061169e576101008083540402835291602001916116c9565b820191906000526020600020905b8154815290600101906020018083116116ac57829003601f168201915b5050505050905090565b3373ffffffffffffffffffffffffffffffffffffffff168273ffffffffffffffffffffffffffffffffffffffff16141561170c57600080fd5b80600560003373ffffffffffffffffffffffffffffffffffffffff1673ffffffffffffffffffffffffffffffffffffffff16815260200190815260200160002060008473ffffffffffffffffffffffffffffffffffffffff1673ffffffffffffffffffffffffffffffffffffffff16815260200190815260200160002060006101000a81548160ff0219169083151502179055508173ffffffffffffffffffffffffffffffffffffffff163373ffffffffffffffffffffffffffffffffffffffff167f17307eab39ab6107e8899845ad3d59bd9653f200f220920489ca2b5937696c3183604051808215151515815260200191505060405180910390a35050565b6000848484846040516020018085600260200280838360005b83811015611841578082015181840152602081019050611826565b505050509050018460026000925b818410156118955782846020020151600260200280838360005b83811015611884578082015181840152602081019050611869565b50505050905001926001019261184f565b9250505083600260200280838360005b838110156118c05780820151818401526020810190506118a5565b5050505090500182600260200280838360005b838110156118ee5780820151818401526020810190506118d3565b50505050905001945050505050604051602081830303815290604052805190602001209050600073ffffffffffffffffffffffffffffffffffffffff166014600083815260200190815260200160002060010160009054906101000a900473ffffffffffffffffffffffffffffffffffffffff1673ffffffffffffffffffffffffffffffffffffffff16146119ce576040517f08c379a000000000000000000000000000000000000000000000000000000000815260040180806020018281038252602a815260200180613538602a913960400191505060405180910390fd5b6000601560009054906101000a900473ffffffffffffffffffffffffffffffffffffffff1673ffffffffffffffffffffffffffffffffffffffff1663621e9ec0878787876040518563ffffffff1660e01b81526004018085600260200280838360005b83811015611a4c578082015181840152602081019050611a31565b505050509050018460026000925b81841015611aa05782846020020151600260200280838360005b83811015611a8f578082015181840152602081019050611a74565b505050509050019260010192611a5a565b9250505083600260200280838360005b83811015611acb578082015181840152602081019050611ab0565b5050505090500182600260200280838360005b83811015611af9578082015181840152602081019050611ade565b5050505090500194505050505060206040518083038186803b158015611b1e57600080fd5b505afa158015611b32573d6000803e3d6000fd5b505050506040513d6020811015611b4857600080fd5b8101908080519060200190929190505050905080611bb1576040517f08c379a00000000000000000000000000000000000000000000000000000000081526004018080602001828103825260238152602001806134a46023913960400191505060405180910390fd5b611bbc87898461227f565b611bc68888611281565b505050505050505050565b611bdc84848461113a565b611be884848484612417565b611bf157600080fd5b50505050565b6060611c0282612600565b611c0b57600080fd5b601260008381526020019081526020016000208054600181600116156101000203166002900480601f016020809104026020016040519081016040528092919081815260200182805460018160011615610100020316600290048015611cb25780601f10611c8757610100808354040283529160200191611cb2565b820191906000526020600020905b815481529060010190602001808311611c9557829003601f168201915b50505050509050919050565b601560009054906101000a900473ffffffffffffffffffffffffffffffffffffffff1681565b606060118054600181600116156101000203166002900480601f016020809104026020016040519081016040528092919081815260200182805460018160011615610100020316600290048015611d7c5780601f10611d5157610100808354040283529160200191611d7c565b820191906000526020600020905b815481529060010190602001808311611d5f57829003601f168201915b5050505050905090565b6000600560008473ffffffffffffffffffffffffffffffffffffffff1673ffffffffffffffffffffffffffffffffffffffff16815260200190815260200160002060008373ffffffffffffffffffffffffffffffffffffffff1673ffffffffffffffffffffffffffffffffffffffff16815260200190815260200160002060009054906101000a900460ff16905092915050565b3373ffffffffffffffffffffffffffffffffffffffff166000809054906101000a900473ffffffffffffffffffffffffffffffffffffffff1673ffffffffffffffffffffffffffffffffffffffff1614611edc576040517f08c379a000000000000000000000000000000000000000000000000000000000815260040180806020018281038252600c8152602001807f4e6f7420616e206f776e6572000000000000000000000000000000000000000081525060200191505060405180910390fd5b600073ffffffffffffffffffffffffffffffffffffffff168173ffffffffffffffffffffffffffffffffffffffff161415611f7f576040517f08c379a00000000000000000000000000000000000000000000000000000000081526004018080602001828103825260138152602001807f4e6f7420612076616c696420616464726573730000000000000000000000000081525060200191505060405180910390fd5b806000806101000a81548173ffffffffffffffffffffffffffffffffffffffff021916908373ffffffffffffffffffffffffffffffffffffffff1602179055507f143e5287faad4318baa07178f135451e874bf0ab18ac3e5fe90d52756dc8e3d56000809054906101000a900473ffffffffffffffffffffffffffffffffffffffff16604051808273ffffffffffffffffffffffffffffffffffffffff1673ffffffffffffffffffffffffffffffffffffffff16815260200191505060405180910390a150565b600080612052836113b6565b90508073ffffffffffffffffffffffffffffffffffffffff168473ffffffffffffffffffffffffffffffffffffffff1614806120c157508373ffffffffffffffffffffffffffffffffffffffff166120a984610f22565b73ffffffffffffffffffffffffffffffffffffffff16145b806120d257506120d18185611d86565b5b91505092915050565b6120e6838383612672565b6120f08382612913565b6120fa8282612ab1565b505050565b6121098282612b78565b6121138282612ab1565b61211c81612d95565b5050565b61212981612600565b61219b576040517f08c379a00000000000000000000000000000000000000000000000000000000081526004018080602001828103825260138152602001807f546f6b656e20646f65736e742065786973742e0000000000000000000000000081525060200191505060405180910390fd5b61224760118054600181600116156101000203166002900480601f0160208091040260200160405190810160405280929190818152602001828054600181600116156101000203166002900480156122345780601f1061220957610100808354040283529160200191612234565b820191906000526020600020905b81548152906001019060200180831161221757829003601f168201915b505050505061224283612de1565b612f0e565b60126000838152602001908152602001600020908051906020019061226d9291906133a2565b5050565b600081600001549050919050565b612287613422565b60405180604001604052808581526020018473ffffffffffffffffffffffffffffffffffffffff168152509050601381908060018154018082558091505090600182039060005260206000209060020201600090919290919091506000820151816000015560208201518160010160006101000a81548173ffffffffffffffffffffffffffffffffffffffff021916908373ffffffffffffffffffffffffffffffffffffffff16021790555050505080601460008481526020019081526020016000206000820151816000015560208201518160010160006101000a81548173ffffffffffffffffffffffffffffffffffffffff021916908373ffffffffffffffffffffffffffffffffffffffff1602179055509050507f6bc6afc76c0b332ba90fee021156bac0d12ed376d185f1615de6e5c4774f21d3848484604051808481526020018373ffffffffffffffffffffffffffffffffffffffff1673ffffffffffffffffffffffffffffffffffffffff168152602001828152602001935050505060405180910390a150505050565b60006124388473ffffffffffffffffffffffffffffffffffffffff16612f52565b61244557600190506125f8565b60008473ffffffffffffffffffffffffffffffffffffffff1663150b7a02338887876040518563ffffffff1660e01b8152600401808573ffffffffffffffffffffffffffffffffffffffff1673ffffffffffffffffffffffffffffffffffffffff1681526020018473ffffffffffffffffffffffffffffffffffffffff1673ffffffffffffffffffffffffffffffffffffffff16815260200183815260200180602001828103825283818151815260200191508051906020019080838360005b83811015612520578082015181840152602081019050612505565b50505050905090810190601f16801561254d5780820380516001836020036101000a031916815260200191505b5095505050505050602060405180830381600087803b15801561256f57600080fd5b505af1158015612583573d6000803e3d6000fd5b505050506040513d602081101561259957600080fd5b8101908080519060200190929190505050905063150b7a0260e01b7bffffffffffffffffffffffffffffffffffffffffffffffffffffffff1916817bffffffffffffffffffffffffffffffffffffffffffffffffffffffff1916149150505b949350505050565b6000806002600084815260200190815260200160002060009054906101000a900473ffffffffffffffffffffffffffffffffffffffff169050600073ffffffffffffffffffffffffffffffffffffffff168173ffffffffffffffffffffffffffffffffffffffff161415915050919050565b61267b816113b6565b73ffffffffffffffffffffffffffffffffffffffff168373ffffffffffffffffffffffffffffffffffffffff161461271b576040517f08c379a000000000000000000000000000000000000000000000000000000000815260040180806020018281038252601f8152602001807f46726f6d20616464726573732073686f756c64206f776e20746f6b656e49640081525060200191505060405180910390fd5b600073ffffffffffffffffffffffffffffffffffffffff168273ffffffffffffffffffffffffffffffffffffffff1614156127a1576040517f08c379a00000000000000000000000000000000000000000000000000000000081526004018080602001828103825260218152602001806134ee6021913960400191505060405180910390fd5b6003600082815260200190815260200160002060006101000a81549073ffffffffffffffffffffffffffffffffffffffff0219169055600460008473ffffffffffffffffffffffffffffffffffffffff1673ffffffffffffffffffffffffffffffffffffffff168152602001908152602001600020612f9d905050600460008373ffffffffffffffffffffffffffffffffffffffff1673ffffffffffffffffffffffffffffffffffffffff168152602001908152602001600020612fc0905050816002600083815260200190815260200160002060006101000a81548173ffffffffffffffffffffffffffffffffffffffff021916908373ffffffffffffffffffffffffffffffffffffffff160217905550808273ffffffffffffffffffffffffffffffffffffffff168473ffffffffffffffffffffffffffffffffffffffff167fddf252ad1be2c89b69c2b068fc378daa952ba7f163c4a11628f55a4df523b3ef60405160405180910390a4505050565b600061296b6001600660008673ffffffffffffffffffffffffffffffffffffffff1673ffffffffffffffffffffffffffffffffffffffff16815260200190815260200160002080549050612fd690919063ffffffff16565b9050600060076000848152602001908152602001600020549050818114612a58576000600660008673ffffffffffffffffffffffffffffffffffffffff1673ffffffffffffffffffffffffffffffffffffffff16815260200190815260200160002083815481106129d857fe5b9060005260206000200154905080600660008773ffffffffffffffffffffffffffffffffffffffff1673ffffffffffffffffffffffffffffffffffffffff1681526020019081526020016000208381548110612a3057fe5b9060005260206000200181905550816007600083815260200190815260200160002081905550505b600660008573ffffffffffffffffffffffffffffffffffffffff1673ffffffffffffffffffffffffffffffffffffffff168152602001908152602001600020805480919060019003612aaa9190613452565b5050505050565b600660008373ffffffffffffffffffffffffffffffffffffffff1673ffffffffffffffffffffffffffffffffffffffff168152602001908152602001600020805490506007600083815260200190815260200160002081905550600660008373ffffffffffffffffffffffffffffffffffffffff1673ffffffffffffffffffffffffffffffffffffffff1681526020019081526020016000208190806001815401808255809150509060018203906000526020600020016000909192909190915055505050565b60001515612b8582612600565b151514612bfa576040517f08c379a00000000000000000000000000000000000000000000000000000000081526004018080602001828103825260168152602001807f546f6b656e2073686f756c64206e6f742065786973740000000000000000000081525060200191505060405180910390fd5b600073ffffffffffffffffffffffffffffffffffffffff168273ffffffffffffffffffffffffffffffffffffffff161415612c9d576040517f08c379a00000000000000000000000000000000000000000000000000000000081526004018080602001828103825260148152602001807f496e76616c69642061646472657373206f66203000000000000000000000000081525060200191505060405180910390fd5b816002600083815260200190815260200160002060006101000a81548173ffffffffffffffffffffffffffffffffffffffff021916908373ffffffffffffffffffffffffffffffffffffffff160217905550612d36600460008473ffffffffffffffffffffffffffffffffffffffff1673ffffffffffffffffffffffffffffffffffffffff168152602001908152602001600020612fc0565b808273ffffffffffffffffffffffffffffffffffffffff163373ffffffffffffffffffffffffffffffffffffffff167fddf252ad1be2c89b69c2b068fc378daa952ba7f163c4a11628f55a4df523b3ef60405160405180910390a45050565b6008805490506009600083815260200190815260200160002081905550600881908060018154018082558091505090600182039060005260206000200160009091929091909150555050565b60606000821415612e29576040518060400160405280600181526020017f30000000000000000000000000000000000000000000000000000000000000008152509050612f09565b600082905060005b60008214612e53578080600101915050600a8281612e4b57fe5b049150612e31565b6060816040519080825280601f01601f191660200182016040528015612e885781602001600182028038833980820191505090505b50905060006001830390505b60008614612f0157600a8681612ea657fe5b0660300160f81b82828060019003935081518110612ec057fe5b60200101907effffffffffffffffffffffffffffffffffffffffffffffffffffffffffffff1916908160001a905350600a8681612ef957fe5b049550612e94565b819450505050505b919050565b6060612f4a8383604051806020016040528060008152506040518060200160405280600081525060405180602001604052806000815250613020565b905092915050565b60008060007fc5d2460186f7233c927e7db2dcc703c0e500b653ca82273b7bfad8045d85a47060001b9050833f9150808214158015612f9457506000801b8214155b92505050919050565b612fb560018260000154612fd690919063ffffffff16565b816000018190555050565b6001816000016000828254019250508190555050565b600061301883836040518060400160405280601e81526020017f536166654d6174683a207375627472616374696f6e206f766572666c6f7700008152506132e2565b905092915050565b6060808690506060869050606086905060608690506060869050606081518351855187518951010101016040519080825280601f01601f19166020018201604052801561307c5781602001600182028038833980820191505090505b509050606081905060008090506000809050600090505b8851811015613101578881815181106130a857fe5b602001015160f81c60f81b8383806001019450815181106130c557fe5b60200101907effffffffffffffffffffffffffffffffffffffffffffffffffffffffffffff1916908160001a9053508080600101915050613093565b600090505b87518110156131745787818151811061311b57fe5b602001015160f81c60f81b83838060010194508151811061313857fe5b60200101907effffffffffffffffffffffffffffffffffffffffffffffffffffffffffffff1916908160001a9053508080600101915050613106565b600090505b86518110156131e75786818151811061318e57fe5b602001015160f81c60f81b8383806001019450815181106131ab57fe5b60200101907effffffffffffffffffffffffffffffffffffffffffffffffffffffffffffff1916908160001a9053508080600101915050613179565b600090505b855181101561325a5785818151811061320157fe5b602001015160f81c60f81b83838060010194508151811061321e57fe5b60200101907effffffffffffffffffffffffffffffffffffffffffffffffffffffffffffff1916908160001a90535080806001019150506131ec565b600090505b84518110156132cd5784818151811061327457fe5b602001015160f81c60f81b83838060010194508151811061329157fe5b60200101907effffffffffffffffffffffffffffffffffffffffffffffffffffffffffffff1916908160001a905350808060010191505061325f565b82995050505050505050505095945050505050565b600083831115829061338f576040517f08c379a00000000000000000000000000000000000000000000000000000000081526004018080602001828103825283818151815260200191508051906020019080838360005b83811015613354578082015181840152602081019050613339565b50505050905090810190601f1680156133815780820380516001836020036101000a031916815260200191505b509250505060405180910390fd5b5060008385039050809150509392505050565b828054600181600116156101000203166002900490600052602060002090601f016020900481019282601f106133e357805160ff1916838001178555613411565b82800160010185558215613411579182015b828111156134105782518255916020019190600101906133f5565b5b50905061341e919061347e565b5090565b604051806040016040528060008152602001600073ffffffffffffffffffffffffffffffffffffffff1681525090565b81548183558181111561347957818360005260206000209182019101613478919061347e565b5b505050565b6134a091905b8082111561349c576000816000905550600101613484565b5090565b9056fe50726f6f662073686f756c64207061737320636f6e7472616374207665726966797463546f6b656e2073686f756c64206e6f74206265206f776e656420627920746f2061646472657373546f2061646472657373206973206e6f7420612076616c6964206164647265737353656e646572206e6f74206f776e657220616e6420617070726f766520616c6c206e6f74207365742e536f6c7574696f6e2073686f756c64206e6f742068617665206265656e2075736564206265666f72652ea265627a7a723158208f53ed5db4a30aff2e49f7b62f42257f3dd1d078eb93ba40ebd68ff11bfd191264736f6c6343000510003268747470733a2f2f73332d75732d776573742d322e616d617a6f6e6177732e636f6d2f756461636974792d626c6f636b636861696e2f63617073746f6e652f",
  "source": "pragma solidity >=0.4.21 <0.6.0;\n\n// TODO define a contract call to the zokrates generated solidity contract <Verifier> or <renamedVerifier>\nimport './SquareVerifier.sol';\nimport './ERC721Mintable.sol';\n\n// TODO define another contract named SolnSquareVerifier that inherits from your ERC721Mintable class\ncontract SolnSquareVerifier is ERC721MintableComplete {\n\n    // TODO define a solutions struct that can hold an index & an address\n    struct Solutions {\n        uint256 index;\n        address owner;\n    }\n\n    // TODO define an array of the above struct\n    Solutions[] private solArray;\n\n    // TODO define a mapping to store unique solutions submitted\n    mapping( bytes32 => Solutions ) private solMapping;\n\n    // TODO Create an event to emit when a solution is added\n    event SolutionAdded(uint256 index, address owner, bytes32 key);\n\n    SquareVerifier public verifierContract;\n\n    constructor(address verifierAddress) public {\n        verifierContract = SquareVerifier(verifierAddress);\n    }\n\n    // TODO Create a function to add the solutions to the array and emit the event\n    function addSolutions(uint256 index, address user, bytes32 key) internal{\n        Solutions memory sol = Solutions({\n            index: index,\n            owner: user\n        });\n\n        solArray.push(sol);\n        solMapping[key] = sol;\n        emit SolutionAdded(index, user, key);\n    }\n\n    // TODO Create a function to mint new NFT only after the solution has been verified\n    //  - make sure the solution is unique (has not been used before)\n    //  - make sure you handle metadata as well as tokenSuplly\n\n    function mintCoin(address user, uint256 index, uint[2] memory a, uint[2][2] memory b, uint[2] memory c, uint[2] memory input) public{\n        // Hash proof for uniqueness.\n        bytes32 key = keccak256(abi.encodePacked(a, b, c, input));\n\n        // make sure not used before\n        require(solMapping[key].owner == address(0), \"Solution should not have been used before.\");\n        \n        // verify probably proof passes.\n        bool proof = verifierContract.verifyTx(a,b,c,input);\n        require(proof, \"Proof should pass contract verifytc\");\n\n        // add solution\n        addSolutions(index, user, key);\n\n        super.mint(user, index);\n    }\n}\n\n\n\n\n\n\n\n\n\n\n\n\n\n\n\n\n\n\n\n\n\n\n  \n\n\n\n\n\n\n\n\n\n\n\n\n\n\n\n\n\n\n\n\n\n\n\n\n\n\n",
  "sourcePath": "/Users/dfernand/Documents/blockchain/Blockchain-Capstone/eth-contracts/contracts/SolnSquareVerifier.sol",
  "compiler": {
    "name": "solc",
    "version": "0.5.16+commit.9c3226ce.Emscripten.clang"
  },
  "schemaVersion": "3.2.5",
  "updatedAt": "2020-11-29T12:24:54.339Z",
  "networkType": "ethereum",
  "devdoc": {
    "methods": {
      "isApprovedForAll(address,address)": {
        "details": "Tells whether an operator is approved by a given owner",
        "params": {
          "operator": "operator address which you want to query the approval of",
          "owner": "owner address which you want to query the approval of"
        },
        "return": "bool whether the given operator is approved by the given owner"
      },
      "setApprovalForAll(address,bool)": {
        "details": "Sets or unsets the approval of a given operator An operator is allowed to transfer all tokens of the sender on their behalf",
        "params": {
          "approved": "representing the status of the approval to be set",
          "to": "operator address to set the approval"
        }
      },
      "supportsInterface(bytes4)": {
        "details": "implement supportsInterface(bytes4) using a lookup table"
      },
      "tokenByIndex(uint256)": {
        "details": "Gets the token ID at a given index of all the tokens in this contract Reverts if the index is greater or equal to the total number of tokens",
        "params": {
          "index": "uint256 representing the index to be accessed of the tokens list"
        },
        "return": "uint256 token ID at the given index of the tokens list"
      },
      "tokenOfOwnerByIndex(address,uint256)": {
        "details": "Gets the token ID at a given index of the tokens list of the requested owner",
        "params": {
          "index": "uint256 representing the index to be accessed of the requested tokens list",
          "owner": "address owning the tokens list to be accessed"
        },
        "return": "uint256 token ID at the given index of the tokens list owned by the requested address"
      },
      "totalSupply()": {
        "details": "Gets the total amount of tokens stored by the contract",
        "return": "uint256 representing the total amount of tokens"
      }
    }
  },
  "userdoc": {
    "methods": {}
  }
}